:020000040000FA
:100000000C94AC000C94D4000C94D4000C94D40048
:100010000C94D4000C94D4000C94D4000C94D40010
:100020000C94D4000C94D4000C94D4000C94D40000
:100030000C94D4000C94D4000C94D4000C94D400F0
:100040000C9426030C94D4000C9496030C94700327
:100050000C94D4000C94D4000C94D4000C94D400D0
:100060000C94D4000C94D400436F6E74726F6C7354
:100070003A20723D52554E2C20703D50415553450B
:100080002C20733D53544F502E2048617264776189
:10009000726520726573657420636C65617273208C
:1000A0004552524F522E0057617368696E67206344
:1000B0006F6E74726F6C6C65722E20436F696E7315
:1000C0003A20313D3130632C20323D3230632C20D8
:1000D000353D3530632E002073746F705F636F752C
:1000E0006E743D002072656D61696E696E675F6D4B
:1000F000733D00206372656469743D000000000078
:10010000240027002A0000000000250028002B0002
:100110000000000023002600290004040404040455
:1001200004040202020202020303030303030102A6
:100130000408102040800102040810200102040875
:100140001020000000080002010000030407000066
:10015000000000000000C80311241FBECFEFD8E04C
:10016000DEBFCDBF11E0A0E0B1E0EAEAFEE002C0F0
:1001700005900D92A435B107D9F722E0A4E5B1E0CE
:1001800001C01D92AE32B207E1F710E0CCEAD0E038
:1001900004C02197FE010E944D07CB3AD107C9F751
:1001A0000E9403040C9453070C940000833081F0E8
:1001B00028F4813099F08230A9F008958730A9F0B1
:1001C0008830C9F08430B1F4809180008F7D03C005
:1001D000809180008F7780938000089584B58F7719
:1001E00084BD089584B58F7DFBCF8091B0008F775B
:1001F0008093B00008958091B0008F7DF9CFCF93A8
:10020000DF93282F30E0F901EE5BFE4F8491F90176
:10021000E25DFE4FD491F901E65EFE4FC491CC231E
:10022000A1F081110E94D600EC2FF0E0EE0FFF1F2D
:10023000E05FFE4FA591B491EC91ED2381E090E059
:1002400009F480E0DF91CF91089580E090E0FACF4B
:100250001F93CF93DF93282F30E0F901EE5BFE4F21
:100260008491F901E25DFE4FD491F901E65EFE4F03
:10027000C491CC23A9F0162F81110E94D600EC2F37
:10028000F0E0EE0FFF1FEA5FFE4FA591B4918FB72C
:10029000F894EC91111108C0D095DE23DC938FBF48
:1002A000DF91CF911F910895DE2BF8CFCF93DF938D
:1002B00090E0FC01E25DFE4F2491865E9E4FFC01C2
:1002C00084918823D1F090E0880F991FFC01E450BD
:1002D000FF4FA591B491FC01EA5FFE4FC591D49107
:1002E000623071F49FB7F8943C91822F80958323FC
:1002F0008C93E8812E2B28839FBFDF91CF910895A7
:100300008FB7F894EC912E2B2C938FBFF6CFAF9232
:10031000BF92CF92DF92EF92FF920F931F93CF93F2
:10032000DF936C017B018B01040F151FEB015E0154
:10033000AE18BF08C017D10759F06991D601ED91E9
:10034000FC910190F081E02DC6010995892B79F788
:10035000C501DF91CF911F910F91FF90EF90DF903A
:10036000CF90BF90AF900895FC01538D448D252F01
:1003700030E0842F90E0821B930B541710F0CF963F
:10038000089501970895FC01918D828D981761F071
:10039000A28DAE0FBF2FB11D5D968C91928D9F5F88
:1003A0009F73928F90E008958FEF9FEF0895FC0167
:1003B000918D828D981731F0828DE80FF11D858D1A
:1003C00090E008958FEF9FEF0895FC01918D228DAD
:1003D000892F90E0805C9F4F821B91098F73992732
:1003E000089585E891E00E94E50121E0892B09F458
:1003F00020E0822F089580E090E0892B29F00E9470
:10040000F10181110C9400000895FC01A48DA80F46
:10041000B92FB11DA35ABF4F2C91848D90E0019646
:100420008F739927848FA689B7892C93A089B18966
:100430008C91837080648C93938D848D981306C007
:100440000288F389E02D80818F7D80830895EF926B
:10045000FF920F931F93CF93DF93EC0181E0888F7E
:100460009B8D8C8D98131AC0E889F989808185FF4E
:1004700015C09FB7F894EE89FF896083E889F989F0
:1004800080818370806480839FBF81E090E0DF91F2
:10049000CF911F910F91FF90EF900895F62E0B8D45
:1004A00010E00F5F1F4F0F731127E02E8C8D8E1100
:1004B0000CC00FB607FCFACFE889F989808185FF67
:1004C000F5CFCE010E940502F1CFEB8DEC0FFD2F91
:1004D000F11DE35AFF4FF0829FB7F8940B8FEA8922
:1004E000FB8980818062CFCF0F931F93CF93DF93DF
:1004F0008C01D0E0C0E0F801EC0FFD1F6491662391
:1005000041F085E891E00E942702892B11F02196A5
:10051000F2CFCE01DF91CF911F910F910895CF932C
:10052000DF93EC01888D8823B9F0AA89BB89E8891B
:10053000F9898C9185FD03C0808186FD0DC00FB6C1
:1005400007FCF7CF8C9185FFF2CF808185FFEDCF3F
:10055000CE010E940502E9CFDF91CF910895CF929D
:10056000DF92EF92FF92FC018081861729F0608371
:10057000228333834483558380819181891799F045
:10058000C280D380E480F5802C193D094E095F09B3
:100590002E3131054105510530F08183FF90EF90F8
:1005A000DF90CF90089580E0F9CFFC01019000200A
:1005B000E9F73197AF01481B590BBC0185E891E081
:1005C0000C9487018F929F92AF92BF920F931F93CB
:1005D000CF93DF93CDB7DEB7A1970FB6F894DEBF08
:1005E0000FBECDBF19A2423008F44AE08E010F5D64
:1005F0001F4F842E912CB12CA12CA50194010E9497
:100600002B07E62FB901CA01EA30F4F4E05DD80106
:10061000EE938D01232B242B252B79F790E080E09E
:10062000109719F0CD010E94D502A1960FB6F8944B
:10063000DEBF0FBECDBFDF91CF911F910F91BF9055
:10064000AF909F908F900895E95CE1CF1F920F9239
:100650000FB60F9211242F933F938F939F93AF93D5
:10066000BF938091810190918201A0918301B0910B
:1006700084013091800123E0230F2D3758F5019636
:10068000A11DB11D2093800180938101909382016F
:10069000A0938301B093840180917C0190917D01AE
:1006A000A0917E01B0917F010196A11DB11D8093A3
:1006B0007C0190937D01A0937E01B0937F01BF9157
:1006C000AF919F918F913F912F910F900FBE0F90FF
:1006D0001F90189526E8230F0296A11DB11DD2CFB9
:1006E0001F920F920FB60F9211242F933F934F93A7
:1006F0005F936F937F938F939F93AF93BF93EF938A
:10070000FF9385E891E00E940502FF91EF91BF9170
:10071000AF919F918F917F916F915F914F913F9199
:100720002F910F900FBE0F901F9018951F920F9250
:100730000FB60F9211242F938F939F93EF93FF93F4
:10074000E0919501F09196018081E0919B01F091FB
:100750009C0182FD1BC0908180919E018F5F8F73F1
:1007600020919F01821741F0E0919E01F0E0EB574C
:10077000FE4F958F80939E01FF91EF919F918F91F6
:100780002F910F900FBE0F901F9018958081F4CF7E
:10079000E5E8F1E01382128288EE93E0A0E0B0E099
:1007A00084839583A683B78388E191E091838083D6
:1007B00085EC90E09587848784EC90E09787868726
:1007C00080EC90E0918B808B81EC90E0938B828B1E
:1007D00082EC90E0958B848B86EC90E0978B868BF7
:1007E000118E128E138E148EE2E2F2E010821282CB
:1007F0001182138214821582168217821086118646
:10080000128613860895789484B5826084BD84B579
:10081000816084BD85B5826085BD85B5816085BDFB
:1008200080916E00816080936E00109281008091B3
:10083000810082608093810080918100816080933B
:100840008100809180008160809380008091B10060
:1008500084608093B1008091B00081608093B0008B
:1008600080917A00846080937A0080917A0082601F
:1008700080937A0080917A00816080937A008091E1
:100880007A00806880937A001092C100E09195010F
:10089000F091960182E08083E0919101F0919201C4
:1008A0001082E0919301F091940180E18083109295
:1008B0009D01E0919901F0919A0186E08083E09199
:1008C0009701F0919801808180618083E091970188
:1008D000F0919801808188608083E0919701F09188
:1008E0009801808180688083E0919701F091980160
:1008F00080818F7D80838FB7F894C0908101D090E4
:100900008201E0908301F09084018FBF04E011E048
:10091000C8E5D1E03AE0A32E31E0B32EF801919082
:100920008F0162E0892D0E945601892D0E94FF00EF
:1009300021E0892B09F020E029832883CA82DB8209
:10094000EC82FD822696A016B10641F762E08EE0A9
:100950000E94560161E088E00E94560161E089E052
:100960000E94560161E08AE00E9456011092220224
:10097000109224021092230210922502C0922602A5
:10098000D0922702E0922802F0922902C0922A0215
:10099000D0922B02E0922C02F0922D0287EA90E096
:1009A0000E9474028EE291E00E94D50288E690E0F7
:1009B0000E9474028EE291E00E94D50294EF892E8B
:1009C00099249394A12CB12C20E4422E27E7522E97
:1009D0002BE1622E712C8FB7F894C0908101D090DA
:1009E0008201E0908301F09084018FBF82E00E9439
:1009F000FF0061E0892B09F060E0A701960188E51E
:100A000091E00E94AF02282E83E00E94FF0061E087
:100A1000892B09F060E0A70196018EE591E00E9424
:100A2000AF02D82F84E00E94FF0061E0892B09F01B
:100A300060E0A701960184E691E00E94AF02382EA3
:100A400085E00E94FF0061E0892B09F060E0A701CA
:100A500096018AE691E00E94AF02C82F86E00E94CC
:100A6000FF0061E0892B09F060E0A701960180E7B3
:100A700091E00E94AF028111C26087E00E94FF00F6
:100A800061E0892B09F060E0A701960186E791E01B
:100A90000E94AF028111C4608EE00E94FF008C01B1
:100AA00085E891E00E94E501181619063CF485E8F6
:100AB00091E00E94C301813391F4C1604091220210
:100AC000012B21F5443009F4ACC11092240210929C
:100AD00023021092250284E0809322023CC08233DC
:100AE00011F4C260EBCF853311F4C460E7CF8F7D82
:100AF000823539F0803539F0833501F7222423948B
:100B0000DDCFD1E0DBCF33243394D8CF443009F4A8
:100B100088C18EEF840F823038F580912602909143
:100B20002702A0912802B091290297018601081B93
:100B3000190B2A0B3B0BD901C80180349747AB41F5
:100B4000B10508F46FC01092240210922302109293
:100B5000250210922202C0922A02D0922B02E09229
:100B60002C02F0922D0268C0423008F05BC02AE0EF
:100B700030E0C0FD02C030E020E084E190E0C1FD43
:100B800002C090E080E0820F931F22E330E0C2FDBC
:100B900002C030E020E0820F931F60912302709129
:100BA00024028C01092E000C220B330B060F171F99
:100BB000211D311D0115110521403105A0F06FEFF8
:100BC0007FEF7093240260932302411114C071E0FF
:100BD00070932202C0922A02D0922B02E0922C0241
:100BE000F0922D0208C0860F971F909324028093E5
:100BF0002302C29750F7809122028130E9F4DD236D
:100C000009F401C1109224021092230210922502CD
:100C1000C0922602D0922702E0922802F092290286
:100C200082E05ACF222079F1809125028F5F809354
:100C30002502823008F087CF80912A0290912B0202
:100C4000A0912C02B0912D0297018601081B190B6F
:100C50002A0B3B0BC901B801A50194010E942B0787
:100C600020953095409550952170809122028230D8
:100C700009F4CCC098F48823E1F0813009F4C3C0B2
:100C8000C0E0D0E0C5C0332021F083E0423009F459
:100C900023CFDD2389F2433079F6C2CFC0E0D1E023
:100CA000833009F4B5C0843059F7622FC0E0D0E03A
:100CB00003C0C0E0D0E061E088E00E9428016D2F11
:100CC00089E00E9428016C2F8AE00E942801E091AF
:100CD0002202209103018091230290912402F0913D
:100CE0002502E21321C020910101309102018217F7
:100CF0009307D1F420910001F21316C00091540122
:100D0000109155012091560130915701B701A6016C
:100D1000401B510B620B730B8A019B01083E134071
:100D20002105310508F462C0E093030190930201AC
:100D300080930101F0930001C0925401D0925501BB
:100D4000E0925601F0925701E53008F063C0F0E000
:100D5000EE0FFF1FE65FFE4F80819181009711F03B
:100D60000E94D50283EF90E00E94740260912302FA
:100D70007091240290E080E04AE00E94E20284EE5A
:100D800090E00E947402809122028250823008F02A
:100D900044C08091260290912702A0912802B09130
:100DA0002902C81AD90AEA0AFB0A60E4C61667E7EC
:100DB000D6066BE1E606F10480F5C301B2016C19B9
:100DC0007D098E099F094AE00E94E20287ED90E0CA
:100DD0000E9474026091250270E090E080E04AE099
:100DE0000E94E2028EE291E00E94D50280E090E053
:100DF000892B09F4F0CD0E94F101882309F4EBCD91
:100E00000E940000E8CDC0E0D1E055CFD22FC1E074
:100E100060E052CF86E291E0A3CF60E070E0CB01CA
:100E2000D2CF80912A0290912B02A0912C02B091F6
:100E30002D0297018601081B190B2A0B3B0BC901D8
:100E4000B801A50194010E942B072095309540958B
:100E5000509521702ACFA1E21A2EAA1BBB1BFD01BF
:100E60000DC0AA1FBB1FEE1FFF1FA217B307E40789
:100E7000F50720F0A21BB30BE40BF50B661F771FE1
:100E8000881F991F1A9469F76095709580959095C1
:100E90009B01AC01BD01CF010895EE0FFF1F05902E
:100EA000F491E02D0994F894FFCFFFFFFF040203B3
:100EB00004050607310139013F0147014E010000D9
:100EC000000027028701B4018F02E501C301D701A9
:100ED000554E4B4E4F574E000D0A005354414E4451
:100EE00042590052454144590052554E4E494E47D1
:0E0EF00000504155534544004552524F5200A8
:107E0000112484B714BE81FFF0D085E080938100F7
:107E100082E08093C00088E18093C10086E0809377
:107E2000C20080E18093C4008EE0C9D0259A86E02C
:107E300020E33CEF91E0309385002093840096BBD3
:107E4000B09BFECF1D9AA8958150A9F7CC24DD24C4
:107E500088248394B5E0AB2EA1E19A2EF3E0BF2EE7
:107E6000A2D0813461F49FD0082FAFD0023811F036
:107E7000013811F484E001C083E08DD089C08234E0
:107E800011F484E103C0853419F485E0A6D080C0E4
:107E9000853579F488D0E82EFF2485D0082F10E0AE
:107EA000102F00270E291F29000F111F8ED06801E7
:107EB0006FC0863521F484E090D080E0DECF843638
:107EC00009F040C070D06FD0082F6DD080E0C81688
:107ED00080E7D80618F4F601B7BEE895C0E0D1E017
:107EE00062D089930C17E1F7F0E0CF16F0E7DF06D8
:107EF00018F0F601B7BEE89568D007B600FCFDCFD4
:107F0000A601A0E0B1E02C9130E011968C91119780
:107F100090E0982F8827822B932B1296FA010C0160
:107F200087BEE89511244E5F5F4FF1E0A038BF0790
:107F300051F7F601A7BEE89507B600FCFDCF97BE46
:107F4000E89526C08437B1F42ED02DD0F82E2BD052
:107F50003CD0F601EF2C8F010F5F1F4F84911BD097
:107F6000EA94F801C1F70894C11CD11CFA94CF0C13
:107F7000D11C0EC0853739F428D08EE10CD085E9AC
:107F80000AD08FE07ACF813511F488E018D01DD067
:107F900080E101D065CF982F8091C00085FFFCCF94
:107FA0009093C60008958091C00087FFFCCF809118
:107FB000C00084FD01C0A8958091C6000895E0E648
:107FC000F0E098E1908380830895EDDF803219F02E
:107FD00088E0F5DFFFCF84E1DECF1F93182FE3DFCA
:107FE0001150E9F7F2DF1F91089580E0E8DFEE27F6
:047FF000FF270994CA
:027FFE00040479
:00000001FF
